{
  "_format": "hh3-artifact-1",
  "contractName": "PayStream",
  "sourceName": "contracts/PayStream.sol",
  "abi": [
    {
      "inputs": [],
      "stateMutability": "nonpayable",
      "type": "constructor"
    },
    {
      "inputs": [
        {
          "internalType": "address",
          "name": "owner",
          "type": "address"
        }
      ],
      "name": "OwnableInvalidOwner",
      "type": "error"
    },
    {
      "inputs": [
        {
          "internalType": "address",
          "name": "account",
          "type": "address"
        }
      ],
      "name": "OwnableUnauthorizedAccount",
      "type": "error"
    },
    {
      "inputs": [],
      "name": "ReentrancyGuardReentrantCall",
      "type": "error"
    },
    {
      "anonymous": false,
      "inputs": [
        {
          "indexed": true,
          "internalType": "address",
          "name": "employee",
          "type": "address"
        },
        {
          "indexed": false,
          "internalType": "uint256",
          "name": "amount",
          "type": "uint256"
        }
      ],
      "name": "BonusSent",
      "type": "event"
    },
    {
      "anonymous": false,
      "inputs": [
        {
          "indexed": true,
          "internalType": "address",
          "name": "previousOwner",
          "type": "address"
        },
        {
          "indexed": true,
          "internalType": "address",
          "name": "newOwner",
          "type": "address"
        }
      ],
      "name": "OwnershipTransferred",
      "type": "event"
    },
    {
      "anonymous": false,
      "inputs": [
        {
          "indexed": true,
          "internalType": "address",
          "name": "employee",
          "type": "address"
        },
        {
          "indexed": false,
          "internalType": "uint256",
          "name": "finalPayout",
          "type": "uint256"
        }
      ],
      "name": "StreamCancelled",
      "type": "event"
    },
    {
      "anonymous": false,
      "inputs": [
        {
          "indexed": true,
          "internalType": "address",
          "name": "employee",
          "type": "address"
        },
        {
          "indexed": false,
          "internalType": "uint256",
          "name": "ratePerSecond",
          "type": "uint256"
        },
        {
          "indexed": false,
          "internalType": "uint256",
          "name": "taxPercent",
          "type": "uint256"
        }
      ],
      "name": "StreamCreated",
      "type": "event"
    },
    {
      "anonymous": false,
      "inputs": [
        {
          "indexed": true,
          "internalType": "address",
          "name": "employee",
          "type": "address"
        }
      ],
      "name": "StreamPaused",
      "type": "event"
    },
    {
      "anonymous": false,
      "inputs": [
        {
          "indexed": true,
          "internalType": "address",
          "name": "employee",
          "type": "address"
        }
      ],
      "name": "StreamResumed",
      "type": "event"
    },
    {
      "anonymous": false,
      "inputs": [
        {
          "indexed": true,
          "internalType": "address",
          "name": "hr",
          "type": "address"
        },
        {
          "indexed": false,
          "internalType": "uint256",
          "name": "amount",
          "type": "uint256"
        }
      ],
      "name": "TaxWithdrawn",
      "type": "event"
    },
    {
      "anonymous": false,
      "inputs": [
        {
          "indexed": true,
          "internalType": "address",
          "name": "depositor",
          "type": "address"
        },
        {
          "indexed": false,
          "internalType": "uint256",
          "name": "amount",
          "type": "uint256"
        },
        {
          "indexed": false,
          "internalType": "uint256",
          "name": "newBalance",
          "type": "uint256"
        }
      ],
      "name": "TreasuryDeposited",
      "type": "event"
    },
    {
      "anonymous": false,
      "inputs": [
        {
          "indexed": true,
          "internalType": "address",
          "name": "employee",
          "type": "address"
        },
        {
          "indexed": false,
          "internalType": "uint256",
          "name": "net",
          "type": "uint256"
        },
        {
          "indexed": false,
          "internalType": "uint256",
          "name": "tax",
          "type": "uint256"
        },
        {
          "indexed": false,
          "internalType": "uint256",
          "name": "timestamp",
          "type": "uint256"
        }
      ],
      "name": "Withdrawn",
      "type": "event"
    },
    {
      "anonymous": false,
      "inputs": [
        {
          "indexed": false,
          "internalType": "uint256",
          "name": "amount",
          "type": "uint256"
        },
        {
          "indexed": false,
          "internalType": "uint256",
          "name": "newTreasury",
          "type": "uint256"
        }
      ],
      "name": "YieldSimulated",
      "type": "event"
    },
    {
      "inputs": [
        {
          "internalType": "address",
          "name": "employee",
          "type": "address"
        }
      ],
      "name": "cancelStream",
      "outputs": [],
      "stateMutability": "nonpayable",
      "type": "function"
    },
    {
      "inputs": [
        {
          "internalType": "address",
          "name": "employee",
          "type": "address"
        },
        {
          "internalType": "uint256",
          "name": "ratePerSecond",
          "type": "uint256"
        },
        {
          "internalType": "uint256",
          "name": "taxPercent",
          "type": "uint256"
        }
      ],
      "name": "createStream",
      "outputs": [],
      "stateMutability": "nonpayable",
      "type": "function"
    },
    {
      "inputs": [],
      "name": "deposit",
      "outputs": [],
      "stateMutability": "payable",
      "type": "function"
    },
    {
      "inputs": [
        {
          "internalType": "uint256",
          "name": "",
          "type": "uint256"
        }
      ],
      "name": "employees",
      "outputs": [
        {
          "internalType": "address",
          "name": "",
          "type": "address"
        }
      ],
      "stateMutability": "view",
      "type": "function"
    },
    {
      "inputs": [
        {
          "internalType": "address",
          "name": "employee",
          "type": "address"
        }
      ],
      "name": "getAccrued",
      "outputs": [
        {
          "internalType": "uint256",
          "name": "accrued",
          "type": "uint256"
        }
      ],
      "stateMutability": "view",
      "type": "function"
    },
    {
      "inputs": [],
      "name": "getEmployeeCount",
      "outputs": [
        {
          "internalType": "uint256",
          "name": "",
          "type": "uint256"
        }
      ],
      "stateMutability": "view",
      "type": "function"
    },
    {
      "inputs": [],
      "name": "owner",
      "outputs": [
        {
          "internalType": "address",
          "name": "",
          "type": "address"
        }
      ],
      "stateMutability": "view",
      "type": "function"
    },
    {
      "inputs": [
        {
          "internalType": "address",
          "name": "employee",
          "type": "address"
        }
      ],
      "name": "pauseStream",
      "outputs": [],
      "stateMutability": "nonpayable",
      "type": "function"
    },
    {
      "inputs": [
        {
          "internalType": "address",
          "name": "",
          "type": "address"
        }
      ],
      "name": "pausedAccrued",
      "outputs": [
        {
          "internalType": "uint256",
          "name": "",
          "type": "uint256"
        }
      ],
      "stateMutability": "view",
      "type": "function"
    },
    {
      "inputs": [],
      "name": "renounceOwnership",
      "outputs": [],
      "stateMutability": "nonpayable",
      "type": "function"
    },
    {
      "inputs": [
        {
          "internalType": "address",
          "name": "employee",
          "type": "address"
        }
      ],
      "name": "resumeStream",
      "outputs": [],
      "stateMutability": "nonpayable",
      "type": "function"
    },
    {
      "inputs": [],
      "name": "simulateYield",
      "outputs": [],
      "stateMutability": "payable",
      "type": "function"
    },
    {
      "inputs": [
        {
          "internalType": "address",
          "name": "",
          "type": "address"
        }
      ],
      "name": "streams",
      "outputs": [
        {
          "internalType": "uint256",
          "name": "ratePerSecond",
          "type": "uint256"
        },
        {
          "internalType": "uint256",
          "name": "startTime",
          "type": "uint256"
        },
        {
          "internalType": "uint256",
          "name": "lastWithdrawTime",
          "type": "uint256"
        },
        {
          "internalType": "uint256",
          "name": "taxPercent",
          "type": "uint256"
        },
        {
          "internalType": "bool",
          "name": "active",
          "type": "bool"
        }
      ],
      "stateMutability": "view",
      "type": "function"
    },
    {
      "inputs": [],
      "name": "taxVaultBalance",
      "outputs": [
        {
          "internalType": "uint256",
          "name": "",
          "type": "uint256"
        }
      ],
      "stateMutability": "view",
      "type": "function"
    },
    {
      "inputs": [
        {
          "internalType": "address",
          "name": "newOwner",
          "type": "address"
        }
      ],
      "name": "transferOwnership",
      "outputs": [],
      "stateMutability": "nonpayable",
      "type": "function"
    },
    {
      "inputs": [],
      "name": "treasuryBalance",
      "outputs": [
        {
          "internalType": "uint256",
          "name": "",
          "type": "uint256"
        }
      ],
      "stateMutability": "view",
      "type": "function"
    },
    {
      "inputs": [
        {
          "internalType": "address",
          "name": "employee",
          "type": "address"
        },
        {
          "internalType": "uint256",
          "name": "amount",
          "type": "uint256"
        }
      ],
      "name": "triggerBonus",
      "outputs": [],
      "stateMutability": "nonpayable",
      "type": "function"
    },
    {
      "inputs": [],
      "name": "withdraw",
      "outputs": [],
      "stateMutability": "nonpayable",
      "type": "function"
    },
    {
      "inputs": [],
      "name": "withdrawTax",
      "outputs": [],
      "stateMutability": "nonpayable",
      "type": "function"
    },
    {
      "inputs": [
        {
          "internalType": "address",
          "name": "employee",
          "type": "address"
        }
      ],
      "name": "withdrawable",
      "outputs": [
        {
          "internalType": "uint256",
          "name": "amount",
          "type": "uint256"
        }
      ],
      "stateMutability": "view",
      "type": "function"
    },
    {
      "stateMutability": "payable",
      "type": "receive"
    }
  ],
  "bytecode": "0x60806040523480156200001157600080fd5b5033600073ffffffffffffffffffffffffffffffffffffffff168173ffffffffffffffffffffffffffffffffffffffff1603620000885760006040517f1e4fbdf70000000000000000000000000000000000000000000000000000000081526004016200007f9190620001b0565b60405180910390fd5b6200009981620000a760201b60201c565b5060018081905550620001cd565b60008060009054906101000a900473ffffffffffffffffffffffffffffffffffffffff169050816000806101000a81548173ffffffffffffffffffffffffffffffffffffffff021916908373ffffffffffffffffffffffffffffffffffffffff1602179055508173ffffffffffffffffffffffffffffffffffffffff168173ffffffffffffffffffffffffffffffffffffffff167f8be0079c531659141344cd1fd0a4f28419497f9722a3daafe3b4186f6b6457e060405160405180910390a35050565b600073ffffffffffffffffffffffffffffffffffffffff82169050919050565b600062000198826200016b565b9050919050565b620001aa816200018b565b82525050565b6000602082019050620001c760008301846200019f565b92915050565b6125b580620001dd6000396000f3fe6080604052600436106101235760003560e01c80639869e137116100a0578063cfa0e4e511610064578063cfa0e4e5146103c3578063d0e30db0146103ec578063d7290fed146103f6578063dfa20f0a1461041f578063f2fde38b146104365761012a565b80639869e137146102ca578063c2a63e3b14610307578063cd9e3fe814610332578063ce513b6f1461035b578063cf72c7bb146103985761012a565b80634739326b116100e75780634739326b14610200578063645d98281461023d578063715018a614610247578063836992751461025e5780638da5cb5b1461029f5761012a565b80630bf2b21a1461012f578063174cebf7146101585780632a7d4c0814610195578063313dab20146101be5780633ccfd60b146101e95761012a565b3661012a57005b600080fd5b34801561013b57600080fd5b5061015660048036038101906101519190611b56565b61045f565b005b34801561016457600080fd5b5061017f600480360381019061017a9190611b56565b610841565b60405161018c9190611b9c565b60405180910390f35b3480156101a157600080fd5b506101bc60048036038101906101b79190611be3565b610859565b005b3480156101ca57600080fd5b506101d3610a80565b6040516101e09190611b9c565b60405180910390f35b3480156101f557600080fd5b506101fe610a86565b005b34801561020c57600080fd5b5061022760048036038101906102229190611c23565b610dcc565b6040516102349190611c5f565b60405180910390f35b610245610e0b565b005b34801561025357600080fd5b5061025c610ebc565b005b34801561026a57600080fd5b5061028560048036038101906102809190611b56565b610ed0565b604051610296959493929190611c95565b60405180910390f35b3480156102ab57600080fd5b506102b4610f13565b6040516102c19190611c5f565b60405180910390f35b3480156102d657600080fd5b506102f160048036038101906102ec9190611b56565b610f3c565b6040516102fe9190611b9c565b60405180910390f35b34801561031357600080fd5b5061031c61100f565b6040516103299190611b9c565b60405180910390f35b34801561033e57600080fd5b5061035960048036038101906103549190611ce8565b61101c565b005b34801561036757600080fd5b50610382600480360381019061037d9190611b56565b611361565b60405161038f9190611b9c565b60405180910390f35b3480156103a457600080fd5b506103ad6113bd565b6040516103ba9190611b9c565b60405180910390f35b3480156103cf57600080fd5b506103ea60048036038101906103e59190611b56565b6113c3565b005b6103f461154a565b005b34801561040257600080fd5b5061041d60048036038101906104189190611b56565b611612565b005b34801561042b57600080fd5b50610434611763565b005b34801561044257600080fd5b5061045d60048036038101906104589190611b56565b6118cb565b005b610467611951565b61046f6119d8565b6000600460008373ffffffffffffffffffffffffffffffffffffffff1673ffffffffffffffffffffffffffffffffffffffff168152602001908152602001600020905060008160010154116104f9576040517f08c379a00000000000000000000000000000000000000000000000000000000081526004016104f090611d98565b60405180910390fd5b600080600660008573ffffffffffffffffffffffffffffffffffffffff1673ffffffffffffffffffffffffffffffffffffffff1681526020019081526020016000205461054585610f3c565b61054f9190611de7565b905060008111801561056357508060025410155b15610714576000606484600301548361057c9190611e1b565b6105869190611e8c565b9050600081836105969190611ebd565b905082600260008282546105aa9190611ebd565b9250508190555081600360008282546105c39190611de7565b925050819055506000600660008873ffffffffffffffffffffffffffffffffffffffff1673ffffffffffffffffffffffffffffffffffffffff1681526020019081526020016000208190555060008673ffffffffffffffffffffffffffffffffffffffff168260405161063590611f22565b60006040518083038185875af1925050503d8060008114610672576040519150601f19603f3d011682016040523d82523d6000602084013e610677565b606091505b50509050806106bb576040517f08c379a00000000000000000000000000000000000000000000000000000000081526004016106b290611f83565b60405180910390fd5b8194508673ffffffffffffffffffffffffffffffffffffffff167f75e161b3e824b114fc1a33274bd7091918dd4e639cede50b78b15a4eea956a2183854260405161070893929190611fa3565b60405180910390a25050505b6000600460008673ffffffffffffffffffffffffffffffffffffffff1673ffffffffffffffffffffffffffffffffffffffff16815260200190815260200160002060040160006101000a81548160ff021916908315150217905550600460008573ffffffffffffffffffffffffffffffffffffffff1673ffffffffffffffffffffffffffffffffffffffff1681526020019081526020016000206000808201600090556001820160009055600282016000905560038201600090556004820160006101000a81549060ff021916905550508373ffffffffffffffffffffffffffffffffffffffff167faa0e98a1d5c3185ee3383cda00889be32c0dab109b50a7f8d91aa77b3c749aae8360405161082b9190611b9c565b60405180910390a250505061083e611a1e565b50565b60066020528060005260406000206000915090505481565b610861611951565b6108696119d8565b600073ffffffffffffffffffffffffffffffffffffffff168273ffffffffffffffffffffffffffffffffffffffff16036108d8576040517f08c379a00000000000000000000000000000000000000000000000000000000081526004016108cf90612026565b60405180910390fd5b6000811161091b576040517f08c379a000000000000000000000000000000000000000000000000000000000815260040161091290612092565b60405180910390fd5b806002541015610960576040517f08c379a0000000000000000000000000000000000000000000000000000000008152600401610957906120fe565b60405180910390fd5b80600260008282546109729190611ebd565b9250508190555060008273ffffffffffffffffffffffffffffffffffffffff168260405161099f90611f22565b60006040518083038185875af1925050503d80600081146109dc576040519150601f19603f3d011682016040523d82523d6000602084013e6109e1565b606091505b5050905080610a25576040517f08c379a0000000000000000000000000000000000000000000000000000000008152600401610a1c90611f83565b60405180910390fd5b8273ffffffffffffffffffffffffffffffffffffffff167f585aea9023b3d6418c7ef40da9891519064bb45db146787918f4a3c3103d55b683604051610a6b9190611b9c565b60405180910390a250610a7c611a1e565b5050565b60025481565b610a8e6119d8565b6000600460003373ffffffffffffffffffffffffffffffffffffffff1673ffffffffffffffffffffffffffffffffffffffff16815260200190815260200160002090506000816001015411610b18576040517f08c379a0000000000000000000000000000000000000000000000000000000008152600401610b0f9061216a565b60405180910390fd5b6000600660003373ffffffffffffffffffffffffffffffffffffffff1673ffffffffffffffffffffffffffffffffffffffff16815260200190815260200160002054610b6333610f3c565b610b6d9190611de7565b905060008111610bb2576040517f08c379a0000000000000000000000000000000000000000000000000000000008152600401610ba9906121d6565b60405180910390fd5b60006064836003015483610bc69190611e1b565b610bd09190611e8c565b905060008183610be09190611ebd565b9050826002541015610c27576040517f08c379a0000000000000000000000000000000000000000000000000000000008152600401610c1e906120fe565b60405180910390fd5b6000600660003373ffffffffffffffffffffffffffffffffffffffff1673ffffffffffffffffffffffffffffffffffffffff168152602001908152602001600020819055508360040160009054906101000a900460ff1615610c8d574284600201819055505b8260026000828254610c9f9190611ebd565b925050819055508160036000828254610cb89190611de7565b9250508190555060003373ffffffffffffffffffffffffffffffffffffffff1682604051610ce590611f22565b60006040518083038185875af1925050503d8060008114610d22576040519150601f19603f3d011682016040523d82523d6000602084013e610d27565b606091505b5050905080610d6b576040517f08c379a0000000000000000000000000000000000000000000000000000000008152600401610d6290611f83565b60405180910390fd5b3373ffffffffffffffffffffffffffffffffffffffff167f75e161b3e824b114fc1a33274bd7091918dd4e639cede50b78b15a4eea956a21838542604051610db593929190611fa3565b60405180910390a25050505050610dca611a1e565b565b60058181548110610ddc57600080fd5b906000526020600020016000915054906101000a900473ffffffffffffffffffffffffffffffffffffffff1681565b610e13611951565b610e1b6119d8565b60003411610e5e576040517f08c379a0000000000000000000000000000000000000000000000000000000008152600401610e5590612242565b60405180910390fd5b3460026000828254610e709190611de7565b925050819055507faed5c3b6e3a27fb6560da2fce596ddac864fa2ea9ea029f9ee9513d78a68e47034600254604051610eaa929190612262565b60405180910390a1610eba611a1e565b565b610ec4611951565b610ece6000611a27565b565b60046020528060005260406000206000915090508060000154908060010154908060020154908060030154908060040160009054906101000a900460ff16905085565b60008060009054906101000a900473ffffffffffffffffffffffffffffffffffffffff16905090565b600080600460008473ffffffffffffffffffffffffffffffffffffffff1673ffffffffffffffffffffffffffffffffffffffff1681526020019081526020016000206040518060a0016040529081600082015481526020016001820154815260200160028201548152602001600382015481526020016004820160009054906101000a900460ff16151515158152505090508060800151610fe157600091505061100a565b6000816040015142610ff39190611ebd565b90508160000151816110059190611e1b565b925050505b919050565b6000600580549050905090565b611024611951565b600073ffffffffffffffffffffffffffffffffffffffff168373ffffffffffffffffffffffffffffffffffffffff1603611093576040517f08c379a000000000000000000000000000000000000000000000000000000000815260040161108a90612026565b60405180910390fd5b600082116110d6576040517f08c379a00000000000000000000000000000000000000000000000000000000081526004016110cd906122d7565b60405180910390fd5b606481111561111a576040517f08c379a000000000000000000000000000000000000000000000000000000000815260040161111190612343565b60405180910390fd5b600460008473ffffffffffffffffffffffffffffffffffffffff1673ffffffffffffffffffffffffffffffffffffffff16815260200190815260200160002060040160009054906101000a900460ff16156111aa576040517f08c379a00000000000000000000000000000000000000000000000000000000081526004016111a1906123af565b60405180910390fd5b6000600460008573ffffffffffffffffffffffffffffffffffffffff1673ffffffffffffffffffffffffffffffffffffffff1681526020019081526020016000206001015403611258576005839080600181540180825580915050600190039060005260206000200160009091909190916101000a81548173ffffffffffffffffffffffffffffffffffffffff021916908373ffffffffffffffffffffffffffffffffffffffff1602179055505b6040518060a0016040528083815260200142815260200142815260200182815260200160011515815250600460008573ffffffffffffffffffffffffffffffffffffffff1673ffffffffffffffffffffffffffffffffffffffff1681526020019081526020016000206000820151816000015560208201518160010155604082015181600201556060820151816003015560808201518160040160006101000a81548160ff0219169083151502179055509050508273ffffffffffffffffffffffffffffffffffffffff167f825fb8c98efd0ceb43ee72215c07b6128f1e37f50b4cb044076c6021b6f371598383604051611354929190612262565b60405180910390a2505050565b6000600660008373ffffffffffffffffffffffffffffffffffffffff1673ffffffffffffffffffffffffffffffffffffffff168152602001908152602001600020546113ac83610f3c565b6113b69190611de7565b9050919050565b60035481565b6113cb611951565b6113d36119d8565b6000600460008373ffffffffffffffffffffffffffffffffffffffff1673ffffffffffffffffffffffffffffffffffffffff16815260200190815260200160002090508060040160009054906101000a900460ff16611467576040517f08c379a000000000000000000000000000000000000000000000000000000000815260040161145e9061241b565b60405180910390fd5b600061147283610f3c565b905060008111156114d45780600660008573ffffffffffffffffffffffffffffffffffffffff1673ffffffffffffffffffffffffffffffffffffffff16815260200190815260200160002060008282546114cc9190611de7565b925050819055505b60008260040160006101000a81548160ff0219169083151502179055504282600201819055508273ffffffffffffffffffffffffffffffffffffffff167fa3cec158dd61ad7fad02b025a7140acc826d6e778f78db24b46ff4868013d4dd60405160405180910390a25050611547611a1e565b50565b611552611951565b61155a6119d8565b6000341161159d576040517f08c379a000000000000000000000000000000000000000000000000000000000815260040161159490612487565b60405180910390fd5b34600260008282546115af9190611de7565b925050819055503373ffffffffffffffffffffffffffffffffffffffff167f70c58e00ed8980163ffb71f41707b073e9ce29bc92d565d6623cd7cf1bc2516034600254604051611600929190612262565b60405180910390a2611610611a1e565b565b61161a611951565b6000600460008373ffffffffffffffffffffffffffffffffffffffff1673ffffffffffffffffffffffffffffffffffffffff168152602001908152602001600020905060008160010154116116a4576040517f08c379a000000000000000000000000000000000000000000000000000000000815260040161169b90611d98565b60405180910390fd5b8060040160009054906101000a900460ff16156116f6576040517f08c379a00000000000000000000000000000000000000000000000000000000081526004016116ed906124f3565b60405180910390fd5b60018160040160006101000a81548160ff0219169083151502179055504281600201819055508173ffffffffffffffffffffffffffffffffffffffff167f9daa495ea50c111ff2e29a61b762a95626864c63ed421249d542c4480892a3ec60405160405180910390a25050565b61176b611951565b6117736119d8565b60006003549050600081116117bd576040517f08c379a00000000000000000000000000000000000000000000000000000000081526004016117b49061255f565b60405180910390fd5b600060038190555060003373ffffffffffffffffffffffffffffffffffffffff16826040516117eb90611f22565b60006040518083038185875af1925050503d8060008114611828576040519150601f19603f3d011682016040523d82523d6000602084013e61182d565b606091505b5050905080611871576040517f08c379a000000000000000000000000000000000000000000000000000000000815260040161186890611f83565b60405180910390fd5b3373ffffffffffffffffffffffffffffffffffffffff167f7c92e98c5b2af24a95052353679ff5120823a95efc7ab8c5ffbd698449edbce2836040516118b79190611b9c565b60405180910390a250506118c9611a1e565b565b6118d3611951565b600073ffffffffffffffffffffffffffffffffffffffff168173ffffffffffffffffffffffffffffffffffffffff16036119455760006040517f1e4fbdf700000000000000000000000000000000000000000000000000000000815260040161193c9190611c5f565b60405180910390fd5b61194e81611a27565b50565b611959611aeb565b73ffffffffffffffffffffffffffffffffffffffff16611977610f13565b73ffffffffffffffffffffffffffffffffffffffff16146119d65761199a611aeb565b6040517f118cdaa70000000000000000000000000000000000000000000000000000000081526004016119cd9190611c5f565b60405180910390fd5b565b600260015403611a14576040517f3ee5aeb500000000000000000000000000000000000000000000000000000000815260040160405180910390fd5b6002600181905550565b60018081905550565b60008060009054906101000a900473ffffffffffffffffffffffffffffffffffffffff169050816000806101000a81548173ffffffffffffffffffffffffffffffffffffffff021916908373ffffffffffffffffffffffffffffffffffffffff1602179055508173ffffffffffffffffffffffffffffffffffffffff168173ffffffffffffffffffffffffffffffffffffffff167f8be0079c531659141344cd1fd0a4f28419497f9722a3daafe3b4186f6b6457e060405160405180910390a35050565b600033905090565b600080fd5b600073ffffffffffffffffffffffffffffffffffffffff82169050919050565b6000611b2382611af8565b9050919050565b611b3381611b18565b8114611b3e57600080fd5b50565b600081359050611b5081611b2a565b92915050565b600060208284031215611b6c57611b6b611af3565b5b6000611b7a84828501611b41565b91505092915050565b6000819050919050565b611b9681611b83565b82525050565b6000602082019050611bb16000830184611b8d565b92915050565b611bc081611b83565b8114611bcb57600080fd5b50565b600081359050611bdd81611bb7565b92915050565b60008060408385031215611bfa57611bf9611af3565b5b6000611c0885828601611b41565b9250506020611c1985828601611bce565b9150509250929050565b600060208284031215611c3957611c38611af3565b5b6000611c4784828501611bce565b91505092915050565b611c5981611b18565b82525050565b6000602082019050611c746000830184611c50565b92915050565b60008115159050919050565b611c8f81611c7a565b82525050565b600060a082019050611caa6000830188611b8d565b611cb76020830187611b8d565b611cc46040830186611b8d565b611cd16060830185611b8d565b611cde6080830184611c86565b9695505050505050565b600080600060608486031215611d0157611d00611af3565b5b6000611d0f86828701611b41565b9350506020611d2086828701611bce565b9250506040611d3186828701611bce565b9150509250925092565b600082825260208201905092915050565b7f50617953747265616d3a2073747265616d20646f6573206e6f74206578697374600082015250565b6000611d82602083611d3b565b9150611d8d82611d4c565b602082019050919050565b60006020820190508181036000830152611db181611d75565b9050919050565b7f4e487b7100000000000000000000000000000000000000000000000000000000600052601160045260246000fd5b6000611df282611b83565b9150611dfd83611b83565b9250828201905080821115611e1557611e14611db8565b5b92915050565b6000611e2682611b83565b9150611e3183611b83565b9250828202611e3f81611b83565b91508282048414831517611e5657611e55611db8565b5b5092915050565b7f4e487b7100000000000000000000000000000000000000000000000000000000600052601260045260246000fd5b6000611e9782611b83565b9150611ea283611b83565b925082611eb257611eb1611e5d565b5b828204905092915050565b6000611ec882611b83565b9150611ed383611b83565b9250828203905081811115611eeb57611eea611db8565b5b92915050565b600081905092915050565b50565b6000611f0c600083611ef1565b9150611f1782611efc565b600082019050919050565b6000611f2d82611eff565b9150819050919050565b7f50617953747265616d3a207472616e73666572206661696c6564000000000000600082015250565b6000611f6d601a83611d3b565b9150611f7882611f37565b602082019050919050565b60006020820190508181036000830152611f9c81611f60565b9050919050565b6000606082019050611fb86000830186611b8d565b611fc56020830185611b8d565b611fd26040830184611b8d565b949350505050565b7f50617953747265616d3a207a65726f2061646472657373000000000000000000600082015250565b6000612010601783611d3b565b915061201b82611fda565b602082019050919050565b6000602082019050818103600083015261203f81612003565b9050919050565b7f50617953747265616d3a207a65726f20626f6e75730000000000000000000000600082015250565b600061207c601583611d3b565b915061208782612046565b602082019050919050565b600060208201905081810360008301526120ab8161206f565b9050919050565b7f50617953747265616d3a207472656173757279206c6f77000000000000000000600082015250565b60006120e8601783611d3b565b91506120f3826120b2565b602082019050919050565b60006020820190508181036000830152612117816120db565b9050919050565b7f50617953747265616d3a206e6f2073747265616d000000000000000000000000600082015250565b6000612154601483611d3b565b915061215f8261211e565b602082019050919050565b6000602082019050818103600083015261218381612147565b9050919050565b7f50617953747265616d3a206e6f7468696e672061636372756564000000000000600082015250565b60006121c0601a83611d3b565b91506121cb8261218a565b602082019050919050565b600060208201905081810360008301526121ef816121b3565b9050919050565b7f50617953747265616d3a207a65726f207969656c640000000000000000000000600082015250565b600061222c601583611d3b565b9150612237826121f6565b602082019050919050565b6000602082019050818103600083015261225b8161221f565b9050919050565b60006040820190506122776000830185611b8d565b6122846020830184611b8d565b9392505050565b7f50617953747265616d3a207a65726f2072617465000000000000000000000000600082015250565b60006122c1601483611d3b565b91506122cc8261228b565b602082019050919050565b600060208201905081810360008301526122f0816122b4565b9050919050565b7f50617953747265616d3a20746178203e20313030250000000000000000000000600082015250565b600061232d601583611d3b565b9150612338826122f7565b602082019050919050565b6000602082019050818103600083015261235c81612320565b9050919050565b7f50617953747265616d3a2073747265616d20616c726561647920616374697665600082015250565b6000612399602083611d3b565b91506123a482612363565b602082019050919050565b600060208201905081810360008301526123c88161238c565b9050919050565b7f50617953747265616d3a20616c72656164792070617573656400000000000000600082015250565b6000612405601983611d3b565b9150612410826123cf565b602082019050919050565b60006020820190508181036000830152612434816123f8565b9050919050565b7f50617953747265616d3a207a65726f206465706f736974000000000000000000600082015250565b6000612471601783611d3b565b915061247c8261243b565b602082019050919050565b600060208201905081810360008301526124a081612464565b9050919050565b7f50617953747265616d3a20616c72656164792061637469766500000000000000600082015250565b60006124dd601983611d3b565b91506124e8826124a7565b602082019050919050565b6000602082019050818103600083015261250c816124d0565b9050919050565b7f50617953747265616d3a206e6f2074617820746f207769746864726177000000600082015250565b6000612549601d83611d3b565b915061255482612513565b602082019050919050565b600060208201905081810360008301526125788161253c565b905091905056fea2646970667358221220cdd889a8db39ba80a974e229cdc7767354513b31f24e2cb2b9a0514c87153c9064736f6c63430008140033",
  "linkReferences": {},
  "deployedLinkReferences": {},
  "immutableReferences": {},
  "inputSourceName": "project/contracts/PayStream.sol",
  "buildInfoId": "solc-0_8_20-2115cccbc041a7197fb456067f819aa11865b4de"
}